{
  "contractName": "Math",
  "abi": [
    {
      "constant": true,
      "inputs": [
        {
          "name": "a",
          "type": "int256"
        },
        {
          "name": "b",
          "type": "int256"
        }
      ],
      "name": "safeToMul",
      "outputs": [
        {
          "name": "",
          "type": "bool"
        }
      ],
      "payable": false,
      "stateMutability": "view",
      "type": "function"
    },
    {
      "constant": true,
      "inputs": [
        {
          "name": "a",
          "type": "uint256"
        },
        {
          "name": "b",
          "type": "uint256"
        }
      ],
      "name": "safeToAdd",
      "outputs": [
        {
          "name": "",
          "type": "bool"
        }
      ],
      "payable": false,
      "stateMutability": "view",
      "type": "function"
    },
    {
      "constant": true,
      "inputs": [
        {
          "name": "a",
          "type": "uint256"
        },
        {
          "name": "b",
          "type": "uint256"
        }
      ],
      "name": "add",
      "outputs": [
        {
          "name": "",
          "type": "uint256"
        }
      ],
      "payable": false,
      "stateMutability": "view",
      "type": "function"
    },
    {
      "constant": true,
      "inputs": [
        {
          "name": "a",
          "type": "int256"
        },
        {
          "name": "b",
          "type": "int256"
        }
      ],
      "name": "safeToSub",
      "outputs": [
        {
          "name": "",
          "type": "bool"
        }
      ],
      "payable": false,
      "stateMutability": "view",
      "type": "function"
    },
    {
      "constant": true,
      "inputs": [
        {
          "name": "a",
          "type": "int256"
        },
        {
          "name": "b",
          "type": "int256"
        }
      ],
      "name": "add",
      "outputs": [
        {
          "name": "",
          "type": "int256"
        }
      ],
      "payable": false,
      "stateMutability": "view",
      "type": "function"
    },
    {
      "constant": true,
      "inputs": [
        {
          "name": "a",
          "type": "int256"
        },
        {
          "name": "b",
          "type": "int256"
        }
      ],
      "name": "sub",
      "outputs": [
        {
          "name": "",
          "type": "int256"
        }
      ],
      "payable": false,
      "stateMutability": "view",
      "type": "function"
    },
    {
      "constant": true,
      "inputs": [
        {
          "name": "a",
          "type": "uint256"
        },
        {
          "name": "b",
          "type": "uint256"
        }
      ],
      "name": "sub",
      "outputs": [
        {
          "name": "",
          "type": "uint256"
        }
      ],
      "payable": false,
      "stateMutability": "view",
      "type": "function"
    },
    {
      "constant": true,
      "inputs": [
        {
          "name": "a",
          "type": "int256"
        },
        {
          "name": "b",
          "type": "int256"
        }
      ],
      "name": "mul",
      "outputs": [
        {
          "name": "",
          "type": "int256"
        }
      ],
      "payable": false,
      "stateMutability": "view",
      "type": "function"
    },
    {
      "constant": true,
      "inputs": [
        {
          "name": "a",
          "type": "uint256"
        },
        {
          "name": "b",
          "type": "uint256"
        }
      ],
      "name": "mul",
      "outputs": [
        {
          "name": "",
          "type": "uint256"
        }
      ],
      "payable": false,
      "stateMutability": "view",
      "type": "function"
    },
    {
      "constant": true,
      "inputs": [
        {
          "name": "a",
          "type": "uint256"
        },
        {
          "name": "b",
          "type": "uint256"
        }
      ],
      "name": "safeToMul",
      "outputs": [
        {
          "name": "",
          "type": "bool"
        }
      ],
      "payable": false,
      "stateMutability": "view",
      "type": "function"
    },
    {
      "constant": true,
      "inputs": [
        {
          "name": "a",
          "type": "int256"
        },
        {
          "name": "b",
          "type": "int256"
        }
      ],
      "name": "safeToAdd",
      "outputs": [
        {
          "name": "",
          "type": "bool"
        }
      ],
      "payable": false,
      "stateMutability": "view",
      "type": "function"
    },
    {
      "constant": true,
      "inputs": [
        {
          "name": "a",
          "type": "uint256"
        },
        {
          "name": "b",
          "type": "uint256"
        }
      ],
      "name": "safeToSub",
      "outputs": [
        {
          "name": "",
          "type": "bool"
        }
      ],
      "payable": false,
      "stateMutability": "view",
      "type": "function"
    }
  ],
  "bytecode": "0x6060604052341561000f57600080fd5b6105198061001e6000396000f3006060604052600436106100ba576000357c0100000000000000000000000000000000000000000000000000000000900463ffffffff1680631f47ba29146100bf5780634e30a66c146100f8578063771602f7146101315780639030434114610166578063a5f3c23b1461019f578063adefc37b146101d4578063b67d77c514610209578063bbe93d911461023e578063c8a4ac9c14610273578063cb10fa76146102a8578063dc08a80b146102e1578063e31c71c41461031a575b600080fd5b6100de6004808035906020019091908035906020019091905050610353565b604051808215151515815260200191505060405180910390f35b6101176004808035906020019091908035906020019091905050610377565b604051808215151515815260200191505060405180910390f35b6101506004808035906020019091908035906020019091905050610387565b6040518082815260200191505060405180910390f35b61018560048080359060200190919080359060200190919050506103a9565b604051808215151515815260200191505060405180910390f35b6101be60048080359060200190919080359060200190919050506103dd565b6040518082815260200191505060405180910390f35b6101f360048080359060200190919080359060200190919050506103ff565b6040518082815260200191505060405180910390f35b6102286004808035906020019091908035906020019091905050610421565b6040518082815260200191505060405180910390f35b61025d6004808035906020019091908035906020019091905050610443565b6040518082815260200191505060405180910390f35b6102926004808035906020019091908035906020019091905050610465565b6040518082815260200191505060405180910390f35b6102c76004808035906020019091908035906020019091905050610487565b604051808215151515815260200191505060405180910390f35b61030060048080359060200190919080359060200190919050506104ab565b604051808215151515815260200191505060405180910390f35b61033960048080359060200190919080359060200190919050506104df565b604051808215151515815260200191505060405180910390f35b60008082148061036f5750828283850281151561036c57fe5b05145b905092915050565b6000828284011015905092915050565b60006103938383610377565b151561039e57600080fd5b818301905092915050565b60008082121580156103bd57508282840313155b806103d557506000821280156103d4575082828403135b5b905092915050565b60006103e983836104ab565b15156103f457600080fd5b818301905092915050565b600061040b83836103a9565b151561041657600080fd5b818303905092915050565b600061042d83836104df565b151561043857600080fd5b818303905092915050565b600061044f8383610353565b151561045a57600080fd5b818302905092915050565b60006104718383610487565b151561047c57600080fd5b818302905092915050565b6000808214806104a3575082828385028115156104a057fe5b04145b905092915050565b60008082121580156104bf57508282840112155b806104d757506000821280156104d6575082828401125b5b905092915050565b6000818310159050929150505600a165627a7a72305820f7de3050bd3cf1f397c1c019b2fc439b6a1c771c14bf8fcbbae8fd10babb1b940029",
  "source": "pragma solidity ^0.4.11;\n\nlibrary Math {\n\n    function safeToAdd(uint a, uint b)\n        public\n        constant\n        returns (bool)\n    {\n        return a + b >= a;\n    }\n\n    function safeToSub(uint a, uint b)\n        public\n        constant\n        returns (bool)\n    {\n        return a >= b;\n    }\n\n    function safeToMul(uint a, uint b)\n        public\n        constant\n        returns (bool)\n    {\n        return b == 0 || a * b / b == a;\n    }\n\n    function add(uint a, uint b)\n        public\n        constant\n        returns (uint)\n    {\n        require(safeToAdd(a, b));\n        return a + b;\n    }\n\n    function sub(uint a, uint b)\n        public\n        constant\n        returns (uint)\n    {\n        require(safeToSub(a, b));\n        return a - b;\n    }\n\n    function mul(uint a, uint b)\n        public\n        constant\n        returns (uint)\n    {\n        require(safeToMul(a, b));\n        return a * b;\n    }\n\n    function safeToAdd(int a, int b)\n        public\n        constant\n        returns (bool)\n    {\n        return (b >= 0 && a + b >= a) || (b < 0 && a + b < a);\n    }\n\n    function safeToSub(int a, int b)\n        public\n        constant\n        returns (bool)\n    {\n        return (b >= 0 && a - b <= a) || (b < 0 && a - b > a);\n    }\n\n    function safeToMul(int a, int b)\n        public\n        constant\n        returns (bool)\n    {\n        return (b == 0) || (a * b / b == a);\n    }\n\n    function add(int a, int b)\n        public\n        constant\n        returns (int)\n    {\n        require(safeToAdd(a, b));\n        return a + b;\n    }\n\n    function sub(int a, int b)\n        public\n        constant\n        returns (int)\n    {\n        require(safeToSub(a, b));\n        return a - b;\n    }\n\n    function mul(int a, int b)\n        public\n        constant\n        returns (int)\n    {\n        require(safeToMul(a, b));\n        return a * b;\n    }\n}\n",
  "sourcePath": "C:\\Users\\Bashir-PC\\Documents\\ethereum\\Eth-Donations\\contracts\\Utils\\Math.sol",
  "compiler": {
    "name": "solc",
    "version": "0.4.18+commit.9cf6e910.Emscripten.clang"
  },
  "schemaVersion": "1.0.1",
  "updatedAt": "2019-07-27T08:48:40.724Z"
}