{
  "contractName": "StandardProject",
  "abi": [
    {
      "constant": true,
      "inputs": [],
      "name": "projectStatus",
      "outputs": [
        {
          "name": "",
          "type": "uint8"
        }
      ],
      "payable": false,
      "stateMutability": "view",
      "type": "function"
    },
    {
      "constant": true,
      "inputs": [],
      "name": "deadline",
      "outputs": [
        {
          "name": "",
          "type": "uint256"
        }
      ],
      "payable": false,
      "stateMutability": "view",
      "type": "function"
    },
    {
      "constant": true,
      "inputs": [],
      "name": "beneficiary",
      "outputs": [
        {
          "name": "",
          "type": "address"
        }
      ],
      "payable": false,
      "stateMutability": "view",
      "type": "function"
    },
    {
      "constant": false,
      "inputs": [],
      "name": "refund",
      "outputs": [],
      "payable": false,
      "stateMutability": "nonpayable",
      "type": "function"
    },
    {
      "constant": false,
      "inputs": [],
      "name": "payout",
      "outputs": [],
      "payable": false,
      "stateMutability": "nonpayable",
      "type": "function"
    },
    {
      "constant": true,
      "inputs": [],
      "name": "fundingToken",
      "outputs": [
        {
          "name": "",
          "type": "address"
        }
      ],
      "payable": false,
      "stateMutability": "view",
      "type": "function"
    },
    {
      "constant": true,
      "inputs": [],
      "name": "amountRaised",
      "outputs": [
        {
          "name": "amount",
          "type": "uint256"
        }
      ],
      "payable": false,
      "stateMutability": "view",
      "type": "function"
    },
    {
      "constant": true,
      "inputs": [],
      "name": "fundingStage",
      "outputs": [
        {
          "name": "",
          "type": "uint8"
        }
      ],
      "payable": false,
      "stateMutability": "view",
      "type": "function"
    },
    {
      "constant": true,
      "inputs": [],
      "name": "fundingCap",
      "outputs": [
        {
          "name": "",
          "type": "uint256"
        }
      ],
      "payable": false,
      "stateMutability": "view",
      "type": "function"
    },
    {
      "constant": false,
      "inputs": [
        {
          "name": "_funding",
          "type": "uint256"
        },
        {
          "name": "investor",
          "type": "address"
        }
      ],
      "name": "fund",
      "outputs": [],
      "payable": false,
      "stateMutability": "nonpayable",
      "type": "function"
    },
    {
      "inputs": [
        {
          "name": "_creator",
          "type": "address"
        },
        {
          "name": "_fundingCap",
          "type": "uint256"
        },
        {
          "name": "_deadline",
          "type": "uint256"
        }
      ],
      "payable": false,
      "stateMutability": "nonpayable",
      "type": "constructor"
    },
    {
      "payable": false,
      "stateMutability": "nonpayable",
      "type": "fallback"
    },
    {
      "anonymous": false,
      "inputs": [
        {
          "indexed": true,
          "name": "contributor",
          "type": "address"
        },
        {
          "indexed": true,
          "name": "amount",
          "type": "uint256"
        }
      ],
      "name": "LogProjectContributed",
      "type": "event"
    },
    {
      "anonymous": false,
      "inputs": [
        {
          "indexed": true,
          "name": "time",
          "type": "uint256"
        },
        {
          "indexed": false,
          "name": "funding",
          "type": "uint256"
        }
      ],
      "name": "LogFundingCapReached",
      "type": "event"
    },
    {
      "anonymous": false,
      "inputs": [
        {
          "indexed": true,
          "name": "contributor",
          "type": "address"
        },
        {
          "indexed": true,
          "name": "project",
          "type": "address"
        },
        {
          "indexed": true,
          "name": "amount",
          "type": "uint256"
        }
      ],
      "name": "LogRefund",
      "type": "event"
    },
    {
      "anonymous": false,
      "inputs": [
        {
          "indexed": true,
          "name": "beneficiary",
          "type": "address"
        },
        {
          "indexed": true,
          "name": "payout",
          "type": "uint256"
        }
      ],
      "name": "LogPayout",
      "type": "event"
    }
  ],
  "bytecode": "0x6060604052341561000f57600080fd5b60405160608062002d288339810160405280805190602001909190805190602001909190805190602001909190505082828282600460006101000a81548173ffffffffffffffffffffffffffffffffffffffff021916908373ffffffffffffffffffffffffffffffffffffffff16021790555081600381905550426001819055508060028190555061009f610148565b604051809103906000f08015156100b557600080fd5b600560006101000a81548173ffffffffffffffffffffffffffffffffffffffff021916908373ffffffffffffffffffffffffffffffffffffffff1602179055506000600460156101000a81548160ff0219169083600681111561011457fe5b02179055506000600460146101000a81548160ff0219169083600281111561013857fe5b0217905550505050505050610159565b6040516112a88062001a8083390190565b61191780620001696000396000f3006060604052600436106100a4576000357c0100000000000000000000000000000000000000000000000000000000900463ffffffff1680631ab33308146100b157806329dcb0cf146100e857806338af3eed14610111578063590e1ae31461016657806363bd1d4a1461017b57806378065f27146101905780637b3e5e7b146101e5578063cd5718041461020e578063e3b2594f14610245578063eee923951461026e575b34156100af57600080fd5b005b34156100bc57600080fd5b6100c46102b0565b604051808260028111156100d457fe5b60ff16815260200191505060405180910390f35b34156100f357600080fd5b6100fb610521565b6040518082815260200191505060405180910390f35b341561011c57600080fd5b610124610527565b604051808273ffffffffffffffffffffffffffffffffffffffff1673ffffffffffffffffffffffffffffffffffffffff16815260200191505060405180910390f35b341561017157600080fd5b61017961054d565b005b341561018657600080fd5b61018e610a0f565b005b341561019b57600080fd5b6101a3610f77565b604051808273ffffffffffffffffffffffffffffffffffffffff1673ffffffffffffffffffffffffffffffffffffffff16815260200191505060405180910390f35b34156101f057600080fd5b6101f8610f9d565b6040518082815260200191505060405180910390f35b341561021957600080fd5b610221611084565b6040518082600681111561023157fe5b60ff16815260200191505060405180910390f35b341561025057600080fd5b6102586112f5565b6040518082815260200191505060405180910390f35b341561027957600080fd5b6102ae600480803590602001909190803573ffffffffffffffffffffffffffffffffffffffff169060200190919050506112fb565b005b600060025460015401421180156102ec57506002808111156102ce57fe5b600460149054906101000a900460ff1660028111156102e957fe5b14155b15610316576001600460146101000a81548160ff0219169083600281111561031057fe5b02179055505b60028081111561032257fe5b600460149054906101000a900460ff16600281111561033d57fe5b14151561050c576002600681111561035157fe5b600460159054906101000a900460ff16600681111561036c57fe5b14158061039f57506003600681111561038157fe5b600460159054906101000a900460ff16600681111561039c57fe5b14155b80156103d05750600160028111156103b357fe5b600460149054906101000a900460ff1660028111156103ce57fe5b145b156103fe576006600460156101000a81548160ff021916908360068111156103f457fe5b021790555061050b565b6002600681111561040b57fe5b600460159054906101000a900460ff16600681111561042657fe5b14801561045857506000600281111561043b57fe5b600460149054906101000a900460ff16600281111561045657fe5b145b15610486576003600460156101000a81548160ff0219169083600681111561047c57fe5b021790555061050a565b6002600681111561049357fe5b600460159054906101000a900460ff1660068111156104ae57fe5b1480156104e05750600160028111156104c357fe5b600460149054906101000a900460ff1660028111156104de57fe5b145b156105095760048060156101000a81548160ff0219169083600681111561050357fe5b02179055505b5b5b5b600460149054906101000a900460ff16905090565b60025481565b600460009054906101000a900473ffffffffffffffffffffffffffffffffffffffff1681565b60006002546001540142118015610589575060028081111561056b57fe5b600460149054906101000a900460ff16600281111561058657fe5b14155b156105b3576001600460146101000a81548160ff021916908360028111156105ad57fe5b02179055505b6002808111156105bf57fe5b600460149054906101000a900460ff1660028111156105da57fe5b1415156107a957600260068111156105ee57fe5b600460159054906101000a900460ff16600681111561060957fe5b14158061063c57506003600681111561061e57fe5b600460159054906101000a900460ff16600681111561063957fe5b14155b801561066d57506001600281111561065057fe5b600460149054906101000a900460ff16600281111561066b57fe5b145b1561069b576006600460156101000a81548160ff0219169083600681111561069157fe5b02179055506107a8565b600260068111156106a857fe5b600460159054906101000a900460ff1660068111156106c357fe5b1480156106f55750600060028111156106d857fe5b600460149054906101000a900460ff1660028111156106f357fe5b145b15610723576003600460156101000a81548160ff0219169083600681111561071957fe5b02179055506107a7565b6002600681111561073057fe5b600460159054906101000a900460ff16600681111561074b57fe5b14801561077d57506001600281111561076057fe5b600460149054906101000a900460ff16600281111561077b57fe5b145b156107a65760048060156101000a81548160ff021916908360068111156107a057fe5b02179055505b5b5b5b6006808111156107b557fe5b600460159054906101000a900460ff1660068111156107d057fe5b1415156107dc57600080fd5b600560009054906101000a900473ffffffffffffffffffffffffffffffffffffffff1673ffffffffffffffffffffffffffffffffffffffff1663d7805ece336000604051602001526040518263ffffffff167c0100000000000000000000000000000000000000000000000000000000028152600401808273ffffffffffffffffffffffffffffffffffffffff1673ffffffffffffffffffffffffffffffffffffffff168152602001915050602060405180830381600087803b15156108a157600080fd5b6102c65a03f115156108b257600080fd5b505050604051805190509050600560009054906101000a900473ffffffffffffffffffffffffffffffffffffffff1673ffffffffffffffffffffffffffffffffffffffff1663a9059cbb33836000604051602001526040518363ffffffff167c0100000000000000000000000000000000000000000000000000000000028152600401808373ffffffffffffffffffffffffffffffffffffffff1673ffffffffffffffffffffffffffffffffffffffff16815260200182815260200192505050602060405180830381600087803b151561098b57600080fd5b6102c65a03f1151561099c57600080fd5b5050506040518051905015156109b157600080fd5b803073ffffffffffffffffffffffffffffffffffffffff163373ffffffffffffffffffffffffffffffffffffffff167fc2b63887a40047a024d87de89972173a52a7d88c77fb3f7979612aa75e4a0f3760405160405180910390a450565b60006002546001540142118015610a4b5750600280811115610a2d57fe5b600460149054906101000a900460ff166002811115610a4857fe5b14155b15610a75576001600460146101000a81548160ff02191690836002811115610a6f57fe5b02179055505b600280811115610a8157fe5b600460149054906101000a900460ff166002811115610a9c57fe5b141515610c6b5760026006811115610ab057fe5b600460159054906101000a900460ff166006811115610acb57fe5b141580610afe575060036006811115610ae057fe5b600460159054906101000a900460ff166006811115610afb57fe5b14155b8015610b2f575060016002811115610b1257fe5b600460149054906101000a900460ff166002811115610b2d57fe5b145b15610b5d576006600460156101000a81548160ff02191690836006811115610b5357fe5b0217905550610c6a565b60026006811115610b6a57fe5b600460159054906101000a900460ff166006811115610b8557fe5b148015610bb7575060006002811115610b9a57fe5b600460149054906101000a900460ff166002811115610bb557fe5b145b15610be5576003600460156101000a81548160ff02191690836006811115610bdb57fe5b0217905550610c69565b60026006811115610bf257fe5b600460159054906101000a900460ff166006811115610c0d57fe5b148015610c3f575060016002811115610c2257fe5b600460149054906101000a900460ff166002811115610c3d57fe5b145b15610c685760048060156101000a81548160ff02191690836006811115610c6257fe5b02179055505b5b5b5b60046006811115610c7857fe5b600460159054906101000a900460ff166006811115610c9357fe5b1480610cc4575060036006811115610ca757fe5b600460159054906101000a900460ff166006811115610cc257fe5b145b1515610ccf57600080fd5b600560009054906101000a900473ffffffffffffffffffffffffffffffffffffffff1673ffffffffffffffffffffffffffffffffffffffff166370a08231306000604051602001526040518263ffffffff167c0100000000000000000000000000000000000000000000000000000000028152600401808273ffffffffffffffffffffffffffffffffffffffff1673ffffffffffffffffffffffffffffffffffffffff168152602001915050602060405180830381600087803b1515610d9457600080fd5b6102c65a03f11515610da557600080fd5b505050604051805190509050600560009054906101000a900473ffffffffffffffffffffffffffffffffffffffff1673ffffffffffffffffffffffffffffffffffffffff1663a9059cbb600460009054906101000a900473ffffffffffffffffffffffffffffffffffffffff16836000604051602001526040518363ffffffff167c0100000000000000000000000000000000000000000000000000000000028152600401808373ffffffffffffffffffffffffffffffffffffffff1673ffffffffffffffffffffffffffffffffffffffff16815260200182815260200192505050602060405180830381600087803b1515610ea057600080fd5b6102c65a03f11515610eb157600080fd5b505050604051805190501515610ec657600080fd5b6005600460156101000a81548160ff02191690836006811115610ee557fe5b02179055506002600460146101000a81548160ff02191690836002811115610f0957fe5b021790555080600460009054906101000a900473ffffffffffffffffffffffffffffffffffffffff1673ffffffffffffffffffffffffffffffffffffffff167f7d6963073a93103d7a336ea21c7f029ad757c9ef4c0c6ad0ff86c689480e0ed860405160405180910390a350565b600560009054906101000a900473ffffffffffffffffffffffffffffffffffffffff1681565b6000600560009054906101000a900473ffffffffffffffffffffffffffffffffffffffff1673ffffffffffffffffffffffffffffffffffffffff166370a08231306000604051602001526040518263ffffffff167c0100000000000000000000000000000000000000000000000000000000028152600401808273ffffffffffffffffffffffffffffffffffffffff1673ffffffffffffffffffffffffffffffffffffffff168152602001915050602060405180830381600087803b151561106457600080fd5b6102c65a03f1151561107557600080fd5b50505060405180519050905090565b600060025460015401421180156110c057506002808111156110a257fe5b600460149054906101000a900460ff1660028111156110bd57fe5b14155b156110ea576001600460146101000a81548160ff021916908360028111156110e457fe5b02179055505b6002808111156110f657fe5b600460149054906101000a900460ff16600281111561111157fe5b1415156112e0576002600681111561112557fe5b600460159054906101000a900460ff16600681111561114057fe5b14158061117357506003600681111561115557fe5b600460159054906101000a900460ff16600681111561117057fe5b14155b80156111a457506001600281111561118757fe5b600460149054906101000a900460ff1660028111156111a257fe5b145b156111d2576006600460156101000a81548160ff021916908360068111156111c857fe5b02179055506112df565b600260068111156111df57fe5b600460159054906101000a900460ff1660068111156111fa57fe5b14801561122c57506000600281111561120f57fe5b600460149054906101000a900460ff16600281111561122a57fe5b145b1561125a576003600460156101000a81548160ff0219169083600681111561125057fe5b02179055506112de565b6002600681111561126757fe5b600460159054906101000a900460ff16600681111561128257fe5b1480156112b457506001600281111561129757fe5b600460149054906101000a900460ff1660028111156112b257fe5b145b156112dd5760048060156101000a81548160ff021916908360068111156112d757fe5b02179055505b5b5b5b600460159054906101000a900460ff16905090565b60035481565b6002546001540142118015611335575060028081111561131757fe5b600460149054906101000a900460ff16600281111561133257fe5b14155b1561135f576001600460146101000a81548160ff0219169083600281111561135957fe5b02179055505b60028081111561136b57fe5b600460149054906101000a900460ff16600281111561138657fe5b141515611555576002600681111561139a57fe5b600460159054906101000a900460ff1660068111156113b557fe5b1415806113e85750600360068111156113ca57fe5b600460159054906101000a900460ff1660068111156113e557fe5b14155b80156114195750600160028111156113fc57fe5b600460149054906101000a900460ff16600281111561141757fe5b145b15611447576006600460156101000a81548160ff0219169083600681111561143d57fe5b0217905550611554565b6002600681111561145457fe5b600460159054906101000a900460ff16600681111561146f57fe5b1480156114a157506000600281111561148457fe5b600460149054906101000a900460ff16600281111561149f57fe5b145b156114cf576003600460156101000a81548160ff021916908360068111156114c557fe5b0217905550611553565b600260068111156114dc57fe5b600460159054906101000a900460ff1660068111156114f757fe5b14801561152957506001600281111561150c57fe5b600460149054906101000a900460ff16600281111561152757fe5b145b156115525760048060156101000a81548160ff0219169083600681111561154c57fe5b02179055505b5b5b5b6000600681111561156257fe5b600460159054906101000a900460ff16600681111561157d57fe5b14806115ae57506001600681111561159157fe5b600460159054906101000a900460ff1660068111156115ac57fe5b145b15156115b957600080fd5b600354826115c5610f9d565b0111806115e157506115d5610f9d565b826115de610f9d565b01105b156115f5576115ee610f9d565b6003540391505b600560009054906101000a900473ffffffffffffffffffffffffffffffffffffffff1673ffffffffffffffffffffffffffffffffffffffff166360b0b0f083836000604051602001526040518363ffffffff167c0100000000000000000000000000000000000000000000000000000000028152600401808381526020018273ffffffffffffffffffffffffffffffffffffffff1673ffffffffffffffffffffffffffffffffffffffff16815260200192505050602060405180830381600087803b15156116c257600080fd5b6102c65a03f115156116d357600080fd5b5050506040518051905080156118015750600560009054906101000a900473ffffffffffffffffffffffffffffffffffffffff1673ffffffffffffffffffffffffffffffffffffffff166323b872dd8230856000604051602001526040518463ffffffff167c0100000000000000000000000000000000000000000000000000000000028152600401808473ffffffffffffffffffffffffffffffffffffffff1673ffffffffffffffffffffffffffffffffffffffff1681526020018373ffffffffffffffffffffffffffffffffffffffff1673ffffffffffffffffffffffffffffffffffffffff1681526020018281526020019350505050602060405180830381600087803b15156117e557600080fd5b6102c65a03f115156117f657600080fd5b505050604051805190505b151561180c57600080fd5b818173ffffffffffffffffffffffffffffffffffffffff167fef9d68c4f296ce3118a08d262722b9acfc5439ecd741dc6caece0eb1adff842b60405160405180910390a360035461185b610f9d565b14156118c2576002600460156101000a81548160ff0219169083600681111561188057fe5b0217905550427f9e49b0186f7d162419d9b00ac22fff15d36c2b8adcb752d00e32095cd5a2152c836040518082815260200191505060405180910390a26118e7565b6001600460156101000a81548160ff021916908360068111156118e157fe5b02179055505b50505600a165627a7a723058204743a10d12b939d226f82e2c0544c6971fa10db9eadf1c9f61f55d64534c815a00296060604052341561000f57600080fd5b61128a8061001e6000396000f3006060604052600436106100a4576000357c0100000000000000000000000000000000000000000000000000000000900463ffffffff168063095ea7b3146100a957806318160ddd1461010357806323b872dd1461012c5780632e1a7d4d146101a557806360b0b0f0146101c857806370a0823114610222578063a9059cbb1461026f578063d0e30db0146102c9578063d7805ece146102d3578063dd62ed3e14610320575b600080fd5b34156100b457600080fd5b6100e9600480803573ffffffffffffffffffffffffffffffffffffffff1690602001909190803590602001909190505061038c565b604051808215151515815260200191505060405180910390f35b341561010e57600080fd5b61011661047e565b6040518082815260200191505060405180910390f35b341561013757600080fd5b61018b600480803573ffffffffffffffffffffffffffffffffffffffff1690602001909190803573ffffffffffffffffffffffffffffffffffffffff16906020019091908035906020019091905050610488565b604051808215151515815260200191505060405180910390f35b34156101b057600080fd5b6101c660048080359060200190919050506108fc565b005b34156101d357600080fd5b610208600480803590602001909190803573ffffffffffffffffffffffffffffffffffffffff16906020019091905050610b3b565b604051808215151515815260200191505060405180910390f35b341561022d57600080fd5b610259600480803573ffffffffffffffffffffffffffffffffffffffff16906020019091905050610c7b565b6040518082815260200191505060405180910390f35b341561027a57600080fd5b6102af600480803573ffffffffffffffffffffffffffffffffffffffff16906020019091908035906020019091905050610cc3565b604051808215151515815260200191505060405180910390f35b6102d1610f90565b005b34156102de57600080fd5b61030a600480803573ffffffffffffffffffffffffffffffffffffffff1690602001909190505061118e565b6040518082815260200191505060405180910390f35b341561032b57600080fd5b610376600480803573ffffffffffffffffffffffffffffffffffffffff1690602001909190803573ffffffffffffffffffffffffffffffffffffffff169060200190919050506111d7565b6040518082815260200191505060405180910390f35b600081600260003373ffffffffffffffffffffffffffffffffffffffff1673ffffffffffffffffffffffffffffffffffffffff16815260200190815260200160002060008573ffffffffffffffffffffffffffffffffffffffff1673ffffffffffffffffffffffffffffffffffffffff168152602001908152602001600020819055508273ffffffffffffffffffffffffffffffffffffffff163373ffffffffffffffffffffffffffffffffffffffff167f8c5be1e5ebec7d5bd14f71427d1e84f3dd0314c0f7b2291e5b200ac8c7c3b925846040518082815260200191505060405180910390a36001905092915050565b6000600354905090565b60008060008573ffffffffffffffffffffffffffffffffffffffff1673ffffffffffffffffffffffffffffffffffffffff1681526020019081526020016000205473__Math__________________________________63e31c71c49091846000604051602001526040518363ffffffff167c0100000000000000000000000000000000000000000000000000000000028152600401808381526020018281526020019250505060206040518083038186803b151561054557600080fd5b6102c65a03f4151561055657600080fd5b50505060405180519050158061067d5750600260008573ffffffffffffffffffffffffffffffffffffffff1673ffffffffffffffffffffffffffffffffffffffff16815260200190815260200160002060003373ffffffffffffffffffffffffffffffffffffffff1673ffffffffffffffffffffffffffffffffffffffff1681526020019081526020016000205473__Math__________________________________63e31c71c49091846000604051602001526040518363ffffffff167c0100000000000000000000000000000000000000000000000000000000028152600401808381526020018281526020019250505060206040518083038186803b151561066057600080fd5b6102c65a03f4151561067157600080fd5b50505060405180519050155b8061075b57506000808473ffffffffffffffffffffffffffffffffffffffff1673ffffffffffffffffffffffffffffffffffffffff1681526020019081526020016000205473__Math__________________________________634e30a66c9091846000604051602001526040518363ffffffff167c0100000000000000000000000000000000000000000000000000000000028152600401808381526020018281526020019250505060206040518083038186803b151561073e57600080fd5b6102c65a03f4151561074f57600080fd5b50505060405180519050155b1561076957600090506108f5565b816000808673ffffffffffffffffffffffffffffffffffffffff1673ffffffffffffffffffffffffffffffffffffffff1681526020019081526020016000206000828254039250508190555081600260008673ffffffffffffffffffffffffffffffffffffffff1673ffffffffffffffffffffffffffffffffffffffff16815260200190815260200160002060003373ffffffffffffffffffffffffffffffffffffffff1673ffffffffffffffffffffffffffffffffffffffff16815260200190815260200160002060008282540392505081905550816000808573ffffffffffffffffffffffffffffffffffffffff1673ffffffffffffffffffffffffffffffffffffffff168152602001908152602001600020600082825401925050819055508273ffffffffffffffffffffffffffffffffffffffff168473ffffffffffffffffffffffffffffffffffffffff167fddf252ad1be2c89b69c2b068fc378daa952ba7f163c4a11628f55a4df523b3ef846040518082815260200191505060405180910390a3600190505b9392505050565b6000803373ffffffffffffffffffffffffffffffffffffffff1673ffffffffffffffffffffffffffffffffffffffff1681526020019081526020016000205473__Math__________________________________63b67d77c59091836000604051602001526040518363ffffffff167c0100000000000000000000000000000000000000000000000000000000028152600401808381526020018281526020019250505060206040518083038186803b15156109b757600080fd5b6102c65a03f415156109c857600080fd5b505050604051805190506000803373ffffffffffffffffffffffffffffffffffffffff1673ffffffffffffffffffffffffffffffffffffffff1681526020019081526020016000208190555060035473__Math__________________________________63b67d77c59091836000604051602001526040518363ffffffff167c0100000000000000000000000000000000000000000000000000000000028152600401808381526020018281526020019250505060206040518083038186803b1515610a9357600080fd5b6102c65a03f41515610aa457600080fd5b505050604051805190506003819055503373ffffffffffffffffffffffffffffffffffffffff166108fc829081150290604051600060405180830381858888f193505050501515610af457600080fd5b803373ffffffffffffffffffffffffffffffffffffffff167fb4214c8c54fc7442f36d3682f59aebaf09358a4431835b30efb29d52cf9e1e9160405160405180910390a350565b6000600160008373ffffffffffffffffffffffffffffffffffffffff1673ffffffffffffffffffffffffffffffffffffffff1681526020019081526020016000205473__Math__________________________________634e30a66c9091856000604051602001526040518363ffffffff167c0100000000000000000000000000000000000000000000000000000000028152600401808381526020018281526020019250505060206040518083038186803b1515610bf957600080fd5b6102c65a03f41515610c0a57600080fd5b505050604051805190501515610c235760009050610c75565b82600160008473ffffffffffffffffffffffffffffffffffffffff1673ffffffffffffffffffffffffffffffffffffffff16815260200190815260200160002060008282540192505081905550600190505b92915050565b60008060008373ffffffffffffffffffffffffffffffffffffffff1673ffffffffffffffffffffffffffffffffffffffff168152602001908152602001600020549050919050565b60008060003373ffffffffffffffffffffffffffffffffffffffff1673ffffffffffffffffffffffffffffffffffffffff1681526020019081526020016000205473__Math__________________________________63e31c71c49091846000604051602001526040518363ffffffff167c0100000000000000000000000000000000000000000000000000000000028152600401808381526020018281526020019250505060206040518083038186803b1515610d8057600080fd5b6102c65a03f41515610d9157600080fd5b505050604051805190501580610e7a57506000808473ffffffffffffffffffffffffffffffffffffffff1673ffffffffffffffffffffffffffffffffffffffff1681526020019081526020016000205473__Math__________________________________634e30a66c9091846000604051602001526040518363ffffffff167c0100000000000000000000000000000000000000000000000000000000028152600401808381526020018281526020019250505060206040518083038186803b1515610e5d57600080fd5b6102c65a03f41515610e6e57600080fd5b50505060405180519050155b15610e885760009050610f8a565b816000803373ffffffffffffffffffffffffffffffffffffffff1673ffffffffffffffffffffffffffffffffffffffff16815260200190815260200160002060008282540392505081905550816000808573ffffffffffffffffffffffffffffffffffffffff1673ffffffffffffffffffffffffffffffffffffffff168152602001908152602001600020600082825401925050819055508273ffffffffffffffffffffffffffffffffffffffff163373ffffffffffffffffffffffffffffffffffffffff167fddf252ad1be2c89b69c2b068fc378daa952ba7f163c4a11628f55a4df523b3ef846040518082815260200191505060405180910390a3600190505b92915050565b6000803373ffffffffffffffffffffffffffffffffffffffff1673ffffffffffffffffffffffffffffffffffffffff1681526020019081526020016000205473__Math__________________________________63771602f79091346000604051602001526040518363ffffffff167c0100000000000000000000000000000000000000000000000000000000028152600401808381526020018281526020019250505060206040518083038186803b151561104b57600080fd5b6102c65a03f4151561105c57600080fd5b505050604051805190506000803373ffffffffffffffffffffffffffffffffffffffff1673ffffffffffffffffffffffffffffffffffffffff1681526020019081526020016000208190555060035473__Math__________________________________63771602f79091346000604051602001526040518363ffffffff167c0100000000000000000000000000000000000000000000000000000000028152600401808381526020018281526020019250505060206040518083038186803b151561112757600080fd5b6102c65a03f4151561113857600080fd5b50505060405180519050600381905550343373ffffffffffffffffffffffffffffffffffffffff167f1b851e1031ef35a238e6c67d0c7991162390df915f70eaf9098dbf0b175a619860405160405180910390a3565b6000600160008373ffffffffffffffffffffffffffffffffffffffff1673ffffffffffffffffffffffffffffffffffffffff168152602001908152602001600020549050919050565b6000600260008473ffffffffffffffffffffffffffffffffffffffff1673ffffffffffffffffffffffffffffffffffffffff16815260200190815260200160002060008373ffffffffffffffffffffffffffffffffffffffff1673ffffffffffffffffffffffffffffffffffffffff168152602001908152602001600020549050929150505600a165627a7a7230582013177731edc9034e96e7c8c7e082691d2601f11b0efd74817471cc26861dff0e0029",
  "source": "pragma solidity ^0.4.11; \n\nimport '../Projects/Project.sol'; \nimport \"../Utils/Math.sol\";\n\ncontract StandardProject is Project {\n        \n    function StandardProject(address _creator, uint _fundingCap, uint _deadline)        \n        public \n        Project(_creator, _fundingCap, _deadline)        \n    {\n\n    }\n\n    function fund(uint _funding, address investor) \n        evalExpiry\n        evalFundingStage\n        public\n    {\n        require(stage == FundingStage.Open || \n                stage == FundingStage.FundingRaised);\n\n        // Reduce contribution amount if it exceeds funding cap, or overflows\n        if (amountRaised() + _funding > fundingCap || \n            amountRaised() + _funding < amountRaised()) {\n            _funding = fundingCap - amountRaised();\n        }\n \n        require(fundingToken.contribute(_funding, investor) && \n                fundingToken.transferFrom(investor, this, _funding));\n\n        LogProjectContributed(investor, _funding);\n\n        if (amountRaised() == fundingCap) {\n            stage = FundingStage.CapReached;             \n            LogFundingCapReached(now, _funding);            \n        } else {\n            stage = FundingStage.FundingRaised; \n        }\n    }    \n\n    function refund()\n        evalExpiry\n        evalFundingStage\n        public \n    {\n        require(stage == FundingStage.Failed);\n        uint toRefund = fundingToken.contributionOf(msg.sender);\n        require(fundingToken.transfer(msg.sender, toRefund));       \n        LogRefund(msg.sender, this, toRefund); \n    }\n\n    function payout() \n        evalExpiry\n        evalFundingStage\n        public\n    {\n        require(stage == FundingStage.Success || \n                stage == FundingStage.EarlySuccess);\n        \n        uint payOut = fundingToken.balanceOf(this);\n        require(fundingToken.transfer(beneficiary, payOut));\n        stage = FundingStage.PaidOut;\n        status = ProjectStatus.Closed;\n        LogPayout(beneficiary, payOut);\n    }\n}",
  "sourcePath": "C:\\Users\\Bashir-PC\\Documents\\ethereum\\Eth-Donations\\contracts\\Projects\\StandardProject.sol",
  "compiler": {
    "name": "solc",
    "version": "0.4.18+commit.9cf6e910.Emscripten.clang"
  },
  "schemaVersion": "1.0.1",
  "updatedAt": "2019-07-26T19:55:56.093Z"
}